:1000000003C1000032C1000030C100002EC1000059
:100010002CC100002AC1000028C1000026C1000038
:1000200024C1000022C1000020C100001EC1000048
:100030001CC100001AC1000018C1000016C1000058
:1000400014C1000012C1000010C100000EC1000068
:100050000CC100000AC1000008C100000C94A60DEC
:1000600004C100000C94700D0C94460DFEC00000FD
:10007000FCC00000FAC00000F8C00000F6C000009C
:10008000F4C00000F2C00000F0C00000EEC00000AC
:10009000ECC00000EAC00000E8C00000E6C00000BC
:1000A000E4C00000E2C00000E0C00000DEC00000CC
:1000B000DCC00000DAC00000D8C00000D6C00000DC
:1000C000D4C00000D2C00000D0C00000CEC00000EC
:1000D000CCC00000CAC00000C8C00000C6C00000FC
:1000E000C4C0000000002100240027002A002D00C9
:1000F0003000330001010000040107010A01000083
:100100002200250028002B002E00310034000201BF
:100110000000050108010B0100002000230026005B
:1001200029002C002F00320000010000030106010D
:10013000090105050505070508080808020202026D
:100140000A0A080804040404010101010101010173
:100150000303030303030303040707070C0C0C0C3E
:100160000C0C0C0C02020202060606060606060627
:100170000B0B0B0B0B0B0B0B0102102020080810B4
:100180002040102040800201020108040201010207
:1001900004081020408080402010080402018004E0
:1001A000020180402010080402010804020101023B
:1001B0000408102040800102040810204080000044
:1001C0000A0B02090C0D0E080703040100000000D1
:1001D000000000000000000000000000000000001F
:1001E00000000000000000000000121110000000DC
:1001F00000000000000000000000000000000000FF
:1002000000000000FA0D731211241FBECFEFD1E2DF
:10021000DEBFCDBF00E00CBF18E0A0E0B2E0EAE630
:10022000FBE200E00BBF02C007900D92A038B107BF
:10023000D9F72AE0A0E8B8E001C01D92AB35B207BB
:10024000E1F711E0C3E0D1E000E006C02197010929
:10025000802FFE010E946813C230D10780E008079A
:10026000A9F70E94D00E0C94A415CACE96E0899FDF
:10027000D0011124AA5BB64F90967C936E935F9742
:1002800091E091969C939197E091B309F091B40914
:100290009091B209992339F0309751F0811108C03B
:1002A000809162091994309719F05C968C91FACF7D
:1002B00008956F927F928F929F92AF92BF92CF924A
:1002C000DF92EF92FF920F931F93CF93DF93C09132
:1002D000A808AC2FB0E020E833E341EE51E00E94E3
:1002E00014134B015C01E2EBF7E09D01C4E6D0E0A2
:1002F00000E911E0CF01825B97408217930794F1E8
:100300006090A708712C2E54384FC90164E670E044
:100310000E9455137C01C90160E971E00E945513E8
:100320006C010FE112E0C1E0D0E0F901E370FF27BA
:10033000C615D7050CF03FC0C230D10569F530971E
:1003400059F5E114F10419F4C114D10429F5A0E818
:100350008A0EABE39A1EA6E2AA1EB11C21960F5F7D
:100360001F4FE6CFCF0183709927892B99F4CF01D6
:10037000BE010E945513892B31F4CF01B8010E94B0
:100380005513892B39F480E8880E81E5981E81E0A9
:10039000A81EB11C3196AECFD8018C91A82FB0E029
:1003A00020E831E541E050E00E941413860E971ECC
:1003B000A81EB91ED3CF2091A40830E0A0E1BEE072
:1003C0000E9446136B017C012091A30830E0ACE34E
:1003D000B0E00E944613C60ED71EE81EF91E80919B
:1003E000A208C80ED11CE11CF11CA091A608A150C6
:1003F000BB0B20E831E541E050E00E941E136C0D7C
:100400007D1D8E1D9F1D680D791D8A1D9B1DDF9111
:10041000CF911F910F91FF90EF90DF90CF90BF9001
:10042000AF909F908F907F906F9008950895AF92B6
:10043000BF92CF92DF92EF92FF920F931F93CF93D1
:10044000DF936C017B018B01040F151FEB015E0133
:10045000AE18BF08C017D10759F06991D601ED91C8
:10046000FC910190F081E02DC6011995892B79F757
:10047000C501DF91CF911F910F91FF90EF90DF9019
:10048000CF90BF90AF900895FC01538D448D252FE0
:1004900030E0842F90E0821B930B541710F0CF961E
:1004A000089501970895FC01918D828D981761F050
:1004B000A28DAE0FBF2FB11D5D968C91928D9F5F67
:1004C0009F73928F90E008958FEF9FEF0895FC0146
:1004D000918D828D981731F0828DE80FF11D858DF9
:1004E00090E008958FEF9FEF0895FC01918D228D8C
:1004F000892F90E0805C9F4F821B91098F73992711
:10050000089589EA98E0F1DF21E0892B09F420E0E1
:10051000822F0895FC01A48DA80FB92FB11DA35AF5
:10052000BF4F2C91848D90E001968F739927848F13
:10053000A689B7892C93A089B1898C918370806436
:100540008C93938D848D981306C00288F389E02DD7
:1005500080818F7D80830895EF92FF920F931F9388
:10056000CF93DF93EC0181E0888F9B8D8C8D981366
:100570001AC0E889F989808185FF15C09FB7F89472
:10058000EE89FF896083E889F989808183708064BE
:1005900080839FBF81E090E0DF91CF911F910F9109
:1005A000FF90EF900895F62E0B8D10E00F5F1F4F18
:1005B0000F731127E02E8C8D8E110BC00FB607FC28
:1005C000FACFE889F989808185FFF5CFCE01A2DFD6
:1005D000F2CFEB8DEC0FFD2FF11DE35AFF4FF082B0
:1005E0009FB7F8940B8FEA89FB8980818062D0CF16
:1005F000CF93DF93EC01888D8823B1F0AA89BB8962
:10060000E889F9898C9185FD03C0808186FD0CC045
:100610000FB607FCF7CF8C9185FFF2CF808185FF65
:10062000EDCFCE0177DFEACFDF91CF91089580E063
:1006300090E0892B21F065DF81110E94000080E0AD
:1006400090E0892B49F080E090E0892B29F00E940E
:10065000000081110E94000080E090E0892B49F0A9
:1006600080E090E0892B29F00E94000081110E9417
:10067000000080E090E0892B49F080E090E0892B39
:1006800029F00E94000081110C940000089581500F
:10069000823108F05AC0E82FF0E08827ED5AFC4F6D
:1006A0008F4F0C9468137303770365036B036F0319
:1006B000A5037A03800384038A038E0392039803BD
:1006C0009C03A503A003A603AA03809180008F7753
:1006D000809380000895809180008F7DF9CF809174
:1006E0008000877FF5CF84B58F7784BD089584B56A
:1006F0008F7DFBCF8091B0008F778093B0000895FD
:100700008091B0008F7DF9CF809190008F7780939A
:1007100090000895809190008F7DF9CF8091900096
:10072000877FF5CF8091A0008F778093A0000895F8
:100730008091A0008F7DF9CF8091A000877FF5CFB9
:10074000809120018F77809320010895809120016E
:100750008F7DF9CF80912001877FF5CFCF93DF93F5
:10076000282F30E0F901E254FE4F8491F901E85856
:10077000FE4FD491F901EE5CFE4FC491CC2399F069
:10078000811185DFEC2FF0E0EE0FFF1FE85EFE4FDA
:10079000A591B491EC91ED2381E090E009F480E023
:1007A000DF91CF91089580E090E0FACF862FD6CFE9
:1007B0001F93CF93DF93282F30E0F901E254FE4FCF
:1007C0008491F901E858FE4FD491F901EE5CFE4F97
:1007D000C491CC23A1F0162F811159DFEC2FF0E04A
:1007E000EE0FFF1FE250FF4FA591B4918FB7F89421
:1007F000EC91111108C0D095DE23DC938FBFDF91FF
:10080000CF911F910895DE2BF8CF862F642FD0CF84
:10081000CF93DF9390E0FC01E858FE4F24918E5C6B
:100820009E4FFC0184918823C9F090E0880F991FA6
:10083000FC01EC51FF4FA591B491FC01E250FF4F38
:10084000C591D49161110DC09FB7F8948C912095FA
:1008500082238C938881282328839FBFDF91CF91A7
:100860000895623051F49FB7F8943C91822F80959F
:1008700083238C93E8812E2BEFCF8FB7F894EC91E4
:100880002E2B2C938FBFEACF862F642FC1CF3FB77B
:10089000F8948091970890919808A0919908B09148
:1008A0009A0826B5A89B05C02F3F19F00196A11DF7
:1008B000B11D3FBFBA2FA92F982F8827BC01CD01AA
:1008C000620F711D811D911D42E0660F771F881F09
:1008D000991F4A95D1F708958F929F92AF92BF9238
:1008E000CF92DF92EF92FF924B015C01D0DF6B0160
:1008F0007C01CDDF6C197D098E099F09683E73402C
:1009000081059105B0F321E0821A9108A108B10890
:1009100088EEC80E83E0D81EE11CF11C81149104FE
:10092000A104B10431F7FF90EF90DF90CF90BF901A
:10093000AF909F908F9008952FB7F894609193088F
:100940007091940880919508909196082FBF089512
:100950000F931F93CF93DF93C82FD62F86E0C89FA6
:10096000F0011124EA5BF64F11A2878D90A181302E
:100970009105E1F058F082309105D1F1039709F427
:100980003CC0DF91CF911F910F9108956623C9F369
:1009900061E070E08C2F6ADCCFDF60939E0970937A
:1009A0009F098093A0099093A109EBCFC5DF009127
:1009B0009E0910919F092091A0093091A109AB01D6
:1009C000BC01401B510B620B730B8091B0099091DD
:1009D000B109B0E0A0E084179507A607B70740F477
:1009E00062E070E08C2FDF91CF911F910F913ECC90
:1009F00063E070E0D111C5CFF5CF70E060E0F2CFD9
:100A00006F927F928F929F92AF92BF92CF92DF921E
:100A1000EF92FF920F931F93CF93DF9381E0809328
:100A2000B2098ADF0091A2091091A3092091A409BB
:100A30003091A509AB01BC01401B510B620B730B3C
:100A40008091AE099091AF09B0E0A0E084179507BE
:100A5000A607B70708F00CC1C0E08091AC09C81721
:100A600058F4E091A809F091A909EC0FF11D62E09A
:100A70008081CEDECF5FF1CF712C812C912C54017F
:100A800083948091AD09781608F05AC0072D10E0C4
:100A9000E091AA09F091AB09E00FF11F61E08081BC
:100AA000B7DEE091AA09F091AB09E00FF11F60E019
:100AB00080817EDED501C401072C04C0880F991FF8
:100AC000AA1FBB1F0A94D2F76C017C01E094F0943A
:100AD000612C8091AC096816F0F4C62DD0E0E0914D
:100AE000A809F091A909EC0FFD1F808137DE24963B
:100AF000CC0FDD1FCA5BD64F892B41F488819981C9
:100B00008C299D29998388836394E3CF8881998177
:100B10008E219F21F7CFE091AA09F091AB09E00F58
:100B2000F11F61E0808144DE8091AA099091AB09B8
:100B3000080F191F60E0F80180816ADE7394A1CF6D
:100B4000C6E4D9E0FE018FEF9FEF278D30A1232B64
:100B500021F4148E968F858F11A2369629E0E23803
:100B6000F20799F7F12C96E0D92E8091AC09F8168E
:100B700008F04FC0E12C0F2D10E0000F111F025B99
:100B8000164F2091AD09E21608F041C0F8016081CE
:100B900071810E2C02C0769567950A94E2F7F29E59
:100BA000900111242E0D311DE6E4F9E080E0458D21
:100BB000568D2417350709F45FC08F5F36968A304B
:100BC000B1F760FF22C0E6E4F9E090E080E0448DF8
:100BD000411116C0E091A609F091A709E20FF31F99
:100BE0004081D89EF001D99EF00D1124EA5BF64FAA
:100BF000448F368F258F10A2178E61E0A9DE05C0C5
:100C0000019636968A30910511F7E394BACFF394A2
:100C1000ACCF10E089A18111182F2696F9E0C238D7
:100C2000DF07C1F789DE6093A2097093A30980935F
:100C3000A4099093A5091123D9F08091670988230D
:100C4000B9F08091650990916609019789F48091C6
:100C50006209DF91CF911F910F91FF90EF90DF908C
:100C6000CF90BF90AF909F908F907F906F9008959E
:100C70001092B20980E0EDCF6170C0CF60938E0812
:100C800070938F088093900890939108645D7E4FD5
:100C90008F4F9F4F60938A0870938B0880938C08C6
:100CA00090938D0882E090E0909389088093880863
:100CB00043DE609384087093850880938608909340
:100CC00087080895CF92DF92EF92FF920F931F93C0
:100CD00033DE8B019C01C0908408D0908508E090A1
:100CE0008608F090870860918E0870918F08809137
:100CF0009008909191080C191D092E093F09083E92
:100D0000134021053105E0F0DC01CB010196A11D66
:100D1000B11D80938E0890938F08A0939008B09394
:100D20009108B701A60148515C4F6F4F7F4F409328
:100D30008408509385086093860870938708C8CF0D
:100D40001F910F91FF90EF90DF90CF9008954F92F9
:100D50005F926F927F928F929F92AF92BF92CF924B
:100D6000DF92EF92FF920F931F93CF93DF934B018C
:100D70005C018091800890918108A0918208B091D7
:100D8000830888159905AA05BB0509F4C6C08CE33C
:100D9000C82ED12CE12CF12CC501A70196010E948F
:100DA00024136093A208CA01B901A70196010E9409
:100DB00024136093A308C501B40120E13EE040E0A4
:100DC00050E00E942413CA01B90128E130E040E05C
:100DD00050E00E9424136093A408C501B40120E8E8
:100DE00031E541E050E00E94241369017A01CA0113
:100DF000B9016C5F7F4F8F4F9F4F27E030E040E09D
:100E000050E00E9424136F5F6093A508412C512C81
:100E1000320140E004E610E0C0E9D1E0242F30E0E8
:100E20002E54384FF901E370FF273097F9F4C901C8
:100E3000B8010E945513892B31F4C901BE010E94EB
:100E40005513892B99F48EE691E0A0E0B0E0480EAE
:100E5000591E6A1E7B1ED301C201AA27BB27C816D2
:100E6000D906EA06FB0638F04F5FD8CF8DE691E051
:100E7000A0E0B0E0ECCF4093A808C90164E670E0C0
:100E80000E945513EC01C90160E971E00E945513FD
:100E9000309721F42097D9F40097C9F04DE651E03E
:100EA00060E070E0441A550A660A770AC418D5084B
:100EB000E608F708AFE1B2E020E0213069F43097AE
:100EC000E9F5209711F40097C9F54DE106C04EE60B
:100ED00051E060E070E0E6CF4C9150E070E060E0FF
:100EE00031E0320FC416D506E606F70640F0C41A04
:100EF000D50AE60AF70A1196232F3C30F1F62F5F48
:100F00002093A708C394C092A6088092800890926C
:100F10008108A0928208B0928308DF91CF911F913F
:100F20000F91FF90EF90DF90CF90BF90AF909F9088
:100F30008F907F906F905F904F9008954CE1CDCF50
:100F400090E080E0089590917B00977F90937B00E4
:100F50008653806480937C0080917A0080648093C3
:100F60007A0080917A0086FDFCCF80917800A09174
:100F70007900BA2FA82F24EB30E00E9470132FEFD6
:100F800033E040E050E00E94F812C9010895CF9389
:100F9000DF93EC0160E08E810BDC61E08E8108DC88
:100FA00060E08E8105DC8BE891E00197F1F7DF913D
:100FB000CF910895CF92DF92EF92FF920F931F93FC
:100FC000CF93DF936C017C0187E0E80EF11CD0E049
:100FD000C0E0062F10E0B8010C2E02C07595679591
:100FE0000A94E2F76170F70181917F01E1DB2196BC
:100FF000C430D10581F7C601DF91CF911F910F91C8
:10100000FF90EF90DF90CF90C2CFCF92DF92EF9220
:10101000FF920F931F93CF93DF93EC01F62E642F73
:101020008C81C6DB8D818F3F11F060E0C1DB0F2D1D
:1010300010E08F8584FF23C06E0187E0C80ED11CAD
:10104000F12CE12CB8010E2C02C0759567950A941D
:10105000E2F76170F60181916F01AADBFFEFEF1AF1
:10106000FF0A88E0E816F10469F7CE01DF91CF911D
:101070001F910F91FF90EF90DF90CF9088CFB80134
:1010800084E0759567958A95E1F7CE0193DF6F2D22
:10109000CE01DF91CF911F910F91FF90EF90DF90E4
:1010A000CF9088CF40E0682F85EB99E0AECFCF930B
:1010B000DF93823029F49091C40998609093C40919
:1010C0008093C8091092C90980E48093CA0980E11D
:1010D0008093CB0980E58093CC0961E08091B909C8
:1010E00097DB8091BA098F3F11F061E091DB61E0FD
:1010F0008091BB098DDBC5EBD9E09E01255B3940B2
:101100008091C40984FD0AC084E090E021962817EC
:1011100039073CF461E08E817BDBEFCF88E090E023
:10112000F5CF8BE39DE00197F1F760E08091B9097D
:101130003FDB60E08091BB093BDB8091BA098F3FC8
:1011400011F060E035DB8091C40984FD31C063E0BB
:1011500085EB99E02FDFCBE4D6E4CE010197F1F7E0
:1011600063E085EB99E026DF2197F1F763E085EBFB
:1011700099E020DF83E592E00197F1F762E085EBEB
:1011800099E018DF8091C40980628CDF84E080934D
:10119000C5098CE087DF81E085DF8BE39FE1019764
:1011A000F1F782E08093C60986E0DF91CF917ACF94
:1011B000806278DF8BE496E40197F1F78091C409AF
:1011C000806270DF83E592E00197F1F78091C409B6
:1011D000806268DFD7CF9091C809691710F06FEF70
:1011E000690FE62FF0E0EB54F64F9489890F806881
:1011F00059CF81E057DF8BE39FE10197F1F765E07D
:1012000070E080E090E068DB60E080E0E4CF41E007
:10121000FCDE81E090E008952091D7093091D80953
:10122000232B39F421E0FC018081882361F020E048
:101230000AC0BC018091D3099091D4090E949415F1
:1012400021E0892BA1F7822F0895FC0124813581AB
:10125000FB014481558124173507E1F4FC018081AD
:101260009181FB01608171810097D1F06115710559
:10127000A1F4232BC1F0FC01808190E008C0232B56
:1012800091F0FB01808190E091958195910921E099
:10129000892B09F020E0822F08950E949415F7CF42
:1012A0006115710561F721E0F6CFFB010190002087
:1012B000E9F73197AF01461B570BDC01ED91FC912B
:1012C0000280F381E02D1994CF93DF93FC014481D8
:1012D00055816081718189EA98E0A9D8EC0163E5C4
:1012E00072E089EA98E0E1DF8C0F9D1FDF91CF91DA
:1012F00008950F931F93CF93DF93CFEDD9E010E0C4
:1013000000E080919B0890919C088017910734F031
:10131000CE01DADF0F5F1F4F2696F3CFDF91CF911B
:101320001F910F910895CF93DF93BC0189EA98E054
:10133000BCDFEC0163E572E089EA98E0B6DF8C0F70
:101340009D1FDF91CF91089586E592E0ECDF84E662
:1013500092E0E9DF86E992E0E6DF8BEC92E0E3DF02
:1013600081EF92E0E0DF8AE193E0DDDF8CE493E05F
:10137000DADF81E893E0D7DF8BEA93E0D4DF8AED10
:1013800093E0D1DF88E094E0CEDF89E394E0CBDF27
:1013900080E794E0C8DF88EA94E0C5DF8EED94E052
:1013A000C2DF88E095E0BFDF82E395E0BCDF8EE539
:1013B00095E0B9DF8AE895E0B6CF8F929F92AF9221
:1013C000BF92CF92DF92EF92FF920F931F93CF9332
:1013D000DF93CDB7DEB7A1970FB6F894DEBF0FBE8F
:1013E000CDBF6C01990FEE08FF08F7FE41C06DE21A
:1013F00089EA98E0B1D88C0122273327A9012C195A
:101400003D094E095F0919A2CE0181967C019AE03F
:10141000892E912CA12CB12CCA01B901A5019401EE
:101420000E942413605DF70162937F01211531054D
:101430004105510589F790E080E0309721F0BF0128
:1014400089EA98E032DF800F911FA1960FB6F894D9
:10145000DEBF0FBECDBFDF91CF911F910F91FF90E7
:10146000EF90DF90CF90BF90AF909F908F900895B6
:10147000A701960119A28E010F5D1F4F8AE0C82EA9
:10148000D12CE12CF12CCA01B901A70196010E94CF
:101490002413605DF80162938F0121153105410528
:1014A000510589F790E080E0309779F2BF0189EA31
:1014B00098E0FBDECACFF9CE67EC75E089EA98E0E8
:1014C000FADF86E390E03FDD78DF89ED95E02BDF02
:1014D0006CED75E089EA98E0EEDF87E390E033DDBC
:1014E0006CDF89ED95E01FCF68EE73E080E090E05F
:1014F000F3D97FDE60EF75E085EB99E0DCCF0F93E9
:101500001F93CF93DF938C01EB01FC0180819181CC
:101510000097E1F06881798161157105A9F0428138
:1015200053812C813D814217530770F00E949D1515
:101530008C819D81F801958384831D821C82DF91BB
:10154000CF911F910F9108950E942614888199814F
:10155000F801918380838A819B81938382838C812C
:101560009D8195838483198218821B821A82E5CF1C
:10157000CF93DF93EC0188819981009711F00E944D
:101580002614198218821D821C821B821A82DF9106
:10159000CF910895FC0180819181009711F00C9406
:1015A000261408950F931F93CF93DF93EC01888146
:1015B0009981009759F02A813B812617370730F02F
:1015C00081E0DF91CF911F910F9108958B016F5FA3
:1015D0007F4F0E94AF14009759F0998388831B8333
:1015E0000A832C813D81232B59F7FC011082E8CF1F
:1015F00080E0E7CFEF92FF920F931F93CF93DF939B
:101600006115710541F480E0DF91CF911F910F9139
:10161000FF90EF90089541155105A9F07B01EC0171
:101620000C811D81040F151FB801BCDF882359F3FD
:10163000288139818C819D81B701820F931F0E947F
:101640009D151D830C8381E0DFCFCF93DF93EC01E9
:10165000FB0101900020E9F73197AF01461B570BC2
:10166000C9DF811102C0CE0183DFCE01DF91CF91AE
:101670000895CF93DF93EC01FB0144815581608194
:101680007181B8DF811102C0CE0172DFCE01DF911E
:10169000CF910895EF92FF920F931F93CF93DF9313
:1016A000EC017B018A01BA017DDF81110AC0CE0104
:1016B0005FDFCE01DF91CF911F910F91FF90EF90EF
:1016C00008951D830C83B701888199810E949D151F
:1016D000F0CFFB0101900020E9F73197AF01461BE5
:1016E000570BD8CF0F931F93CF93DF93CDB7DEB7B0
:1016F00062970FB6F894DEBF0FBECDBF8C01CB0151
:10170000F8011182108213821282158214824AE03B
:10171000BE016F5F7F4F24D7BE016F5F7F4FC8014F
:10172000D8DF62960FB6F894DEBF0FBECDBFDF9153
:10173000CF911F910F910895CF93DF93EC01FB019F
:101740008617970741F0608171816115710539F045
:10175000448155819FDFCE01DF91CF91089508DF4D
:10176000FACFFC0111821082138212821582148238
:10177000E3CFEF92FF920F931F93CF93DF93CDB7F9
:10178000DEB7AA970FB6F894DEBF0FBECDBF7C01BF
:1017900099DADDDA02EA18E0F801608170E0CE0142
:1017A0008596A0DF8FDAD3DAF801618170E0CE018F
:1017B0004F9698DF87DACBDAF801628170E0CE01CC
:1017C000499690DF7FDAC3DAF801648170E0CE01D8
:1017D000439688DF77DABBDAF801658170E0CE01E5
:1017E0000D9680DF6FDAB3DAF801668170E06E542F
:1017F000784FCE01019676DFBE016F5F7F4FCE013D
:101800000796AFDF6CEF75E0CE0107961EDFBE01D5
:10181000635F7F4F2EDF6CEF75E017DFBE016D5EFB
:101820007F4F27DF69E276E010DFBE01675E7F4F02
:1018300020DF68E677E009DFBE01615E7F4F19DFD8
:1018400068E677E002DFBE016B5D7F4F12DFBC010F
:10185000C70187DFCE0107969DDECE0101969ADE95
:10186000CE010D9697DECE01439694DECE014996C9
:1018700091DECE014F968EDECE0185968BDEC701BE
:10188000AA960FB6F894DEBF0FBECDBFDF91CF9101
:101890001F910F91FF90EF900895FC01118210822B
:1018A0001382128215821482FB0101900020E9F755
:1018B0003197AF01461B570BEDCEEF92FF920F937E
:1018C0001F93CF93DF9300D000D01F921F92CDB70C
:1018D000DEB78C0165E572E0E0DF89EA98E00E94FE
:1018E0007502892BD1F389EA98E00E9453027C01AA
:1018F0008DE0E816F10409F1B801CE01019631DF5F
:10190000EF82188641E050E0BE01695F7F4FCE0153
:10191000019670DE811103C0CE01019629DEBE0161
:101920006F5F7F4FC80108DFCE01019633DE6E2D59
:1019300089EA98E00E94AC02D0CF63E572E089EAC0
:1019400098E0B3DCC80128960FB6F894DEBF0FBE4E
:10195000CDBFDF91CF911F910F91FF90EF90089530
:10196000DF92EF92FF920F931F93CF93DF9300D0FC
:1019700000D0CDB7DEB77C0165E572E089ED99E076
:10198000A8DE1091A0081123C9F080ED810F8A30E4
:10199000C8F48091DD099091DE09089778F441E060
:1019A0006AE285EB99E031DB19831A8241E050E06D
:1019B000BE016F5F7F4F89ED99E01CDE21D88093D7
:1019C000A008DFCF1D3209F048C00091DD09109159
:1019D000DE0965E572E0CE0101965FDF8091DD09E9
:1019E0009091DE09009701F10150110980179107CC
:1019F00008F48C01E091D909F091DA09E00FF11FA8
:101A0000D08010826091D9097091DA09CE010196D7
:101A10006115710501F15DDE8091D9099091DA09B6
:101A2000080F191FF801D082BE016F5F7F4F89ED4B
:101A300099E065DDCE010196ADDD61E08091DD09C3
:101A4000CADB69E276E085EB99E02FDC61E080910A
:101A5000DD09C1DBB3CF8CDDDFCF1F3409F0AECFA2
:101A600089ED99E031DC69ED79E0C7017ADEC701E3
:101A700026960FB6F894DEBF0FBECDBFDF91CF9193
:101A80001F910F91FF90EF90DF9008951F920F929A
:101A90000FB60F9211240BB60F922F933F934F93D3
:101AA0005F936F937F938F939F93AF93BF93EF93C6
:101AB000FF9389EA98E00E948A02FF91EF91BF911B
:101AC000AF919F918F917F916F915F914F913F91D6
:101AD0002F910F900BBE0F900FBE0F901F90189577
:101AE0001F920F920FB60F9211240BB60F922F93E5
:101AF0008F939F93EF93FF93E091B908F091BA0809
:101B00008081E091BF08F091C00882FD1DC09081E6
:101B10008091C2088F5F8F732091C308821741F0B4
:101B2000E091C208F0E0E755F74F958F8093C20827
:101B3000FF91EF919F918F912F910F900BBE0F907E
:101B40000FBE0F901F9018958081F2CF1F920F92B9
:101B50000FB60F9211242F933F938F939F93AF93C0
:101B6000BF938091930890919408A0919508B091AB
:101B700096083091920823E0230F2D3758F50196EF
:101B8000A11DB11D2093920880939308909394080F
:101B9000A0939508B0939608809197089091980823
:101BA000A0919908B0919A080196A11DB11D80934A
:101BB000970890939808A0939908B0939A08BF91BA
:101BC000AF919F918F913F912F910F900FBE0F90EA
:101BD0001F90189526E8230F0296A11DB11DD2CFA4
:101BE000FC0180819181009709F094C460E070E06D
:101BF000CB010895CF93DF931092AC081092AB08FD
:101C000088EE93E0A0E0B0E08093AD089093AE083A
:101C1000A093AF08B093B0088FE292E09093AA0827
:101C20008093A90885EC90E09093B6088093B5085E
:101C300084EC90E09093B8088093B70880EC90E033
:101C40009093BA088093B90881EC90E09093BC0817
:101C50008093BB0882EC90E09093BE088093BD080F
:101C600086EC90E09093C0088093BF081092C20861
:101C70001092C3081092C4081092C508CFEDD9E0A5
:101C800065E572E0CE0109DE26968AE0C735D80701
:101C9000B9F765E572E089ED99E0FFDD65E572E091
:101CA00083ED99E0FADD6EEF75E08DEC99E0F5DDFE
:101CB0001092B8091092B7098BE492E09093B6099C
:101CC0008093B50984E18093B9098FEF8093BA09B5
:101CD00085E18093BB098DE08093BC098CE0809303
:101CE000BD098BE08093BE098AE08093BF09109202
:101CF000C0091092C1091092C2091092C309109232
:101D0000C40981E0D4D91092480910924C0910926C
:101D10004B0910924D0981E492E09093470980931A
:101D20004609E2E6F9E010821482138215823696A3
:101D300089E0EE39F807B9F785E092E09093A909B8
:101D40008093A80981E092E09093AB098093AA095F
:101D500084E08093AC098093AD0989E092E0909390
:101D6000A7098093A6098AE090E09093AF09809339
:101D7000AE0984EF91E09093B1098093B00910927D
:101D8000B4091092B3091092A2091092A3091092FB
:101D9000A4091092A5091092B209DF91CF9108957C
:101DA000CF93DF93CDB7DEB7E0970FB6F894DEBFE1
:101DB0000FBECDBF789484B5826084BD84B5816048
:101DC00084BD85B5826085BD85B5816085BD809106
:101DD0006E00816080936E0010928100809181007E
:101DE0008260809381008091810081608093810076
:101DF000809180008160809380008091B100846038
:101E00008093B1008091B00081608093B000809198
:101E10009100826080939100809191008160809315
:101E20009100809190008160809390008091A1004A
:101E300082608093A1008091A10081608093A100C5
:101E40008091A00081608093A00080912101826038
:101E500080932101809121018160809321018091F3
:101E6000200181608093200180917A0084608093BA
:101E70007A0080917A00826080937A0080917A0063
:101E8000816080937A0080917A00806880937A00E4
:101E90001092C10012E061E0812F0E9408041F5FD0
:101EA0001C31C9F782E003D9E091B908F091BA0872
:101EB00082E08083E091B508F091B6081082E0914D
:101EC000B708F091B8088FEC80831092C108E091B8
:101ED000BD08F091BE0886E08083E091BB08F091D8
:101EE000BC08808180618083E091BB08F091BC08D0
:101EF000808188608083E091BB08F091BC0880817C
:101F000080688083E091BB08F091BC0880818F7D60
:101F100080838FE28093A80889E08093A7088CE0F3
:101F20008093A6088093A4088BE38093A3088BE09A
:101F30008093A2080E9459010E943E0665E070E06D
:101F400080E090E00E946C0460E080E044D967E0AB
:101F500076E085EB99E0AFDA61E080E03CD9CE0134
:101F6000019607DC65E176E0CE01079696DCBE01BE
:101F70006F5F7F4FCE0107967CDBA6D9CE01079617
:101F800009DBCE01019606DB97DAB3D96BE276E086
:101F900089EA98E090DA11E006E09090A10889EAD9
:101FA00098E0992009F49FC10E947502892B09F4D9
:101FB00035C0CE01019681DCBE016F5F7F4F83ED9E
:101FC00099E09DDACE010196E5DA63ED79E0CE0184
:101FD0008B96C7DB89E396E01FD961E0811107C0CA
:101FE00084E496E019D9882309F459C060E08EE0B2
:101FF0000E94D803CE018B96CDDA63ED79E0CE0155
:102000000196992009F46BC1ACDB62E777E0CE0161
:1020100001961BDB59D9CE010196BCDAE090000293
:10202000EE2039F186E10E94AE03019709F07BC1F1
:1020300083EB97E078D9FE2C88E10E94AE030197EC
:1020400009F079C189ED97E06ED9FE2C8AE10E94F2
:10205000AE03892B09F076C180E098E064D961E095
:1020600083E10E94D80368EE73E080E090E00E9474
:102070006C040E9400058093A008882369F0909169
:102080009F08992309F4D5C1823409F49BC10CF04F
:1020900066C1813409F484C10E9417037ECF82E5B2
:1020A00096E0BAD861E0811106C087E596E0B4D821
:1020B000882319F060E08FE09BCF8FE596E0ACD8E5
:1020C00061E0811106C08AE696E0A6D8882319F05F
:1020D00060E080E18DCF88E796E09ED861E08111D5
:1020E00006C082E896E098D8882319F060E081E184
:1020F0007FCF8FE896E090D861E0811106C08BE930
:1021000096E08AD8882319F060E082E171CF8AEAEC
:1021100096E082D8882311F0CFD96CCF85EB96E07A
:102120007BD8882311F010D965CF82EC96E074D863
:10213000882319F0109300025DCF80ED96E06CD8F3
:10214000882319F01092000255CF8EED96E064D8E6
:10215000882351F0CE0101960CDBCE010196B4D854
:10216000CE01019617DA46CF8BEE96E055D888233C
:1021700011F0BFD83FCF84EF96E04ED8882349F1C5
:102180006FEF76E089EA98E096D9CE01079695DB65
:102190006BE077E089EA98E08ED9CE0101968DDB7D
:1021A000BE016F5F7F4FCE0107964FD8882371F035
:1021B00063ED79E08DEC99E0BFDA8AE197E0B3D87E
:1021C000CE010196E7D9CE010796CCCF8BE297E0FE
:1021D000F6CF82E497E020D8882309F47EC06EE42D
:1021E00077E089EA98E067D9CE01859666DB63E5FA
:1021F00077E089EA98E05FD9CE014F965EDB67E52C
:1022000077E089EA98E057D9CE01499656DB6CE52C
:1022100077E089EA98E04FD9CE0143964EDB62E63B
:1022200077E089EA98E047D9CE010D9646DB6AE669
:1022300077E089EA98E03FD9CE0107963EDBCE01F0
:102240008596CEDC6B01CE014F96CADC562ECE01B0
:102250004996C6DC662ECE010796C2DC862ECE01DC
:102260000D96BEDC762ECE014396BADC84E6C81607
:10227000D1047CF182EBC81A87E0D80AC092A80882
:102280005092A7086092A6086093A4087092A308D1
:102290008092A2080E9459010E943E06CE0101963A
:1022A00068DACE01019610D8CE01019673D9CE011D
:1022B000079670D9CE010D966DD9CE0143966AD995
:1022C000CE01499667D9CE014F9664D9CE01859645
:1022D00049CF8EE1C80ED11CD1CF912C8BCE41DAE3
:1022E00063E877E094CE0E947502892B09F496CEBC
:1022F000CE010196E2DABE016F5F7F4F83ED99E078
:10230000FED8CE01019646D96DEC79E083ED99E0D7
:102310000E942509882319F08AE997E004D81093D0
:10232000A10812D87BCE87E10E94AE03019709F481
:102330007FCEF12C81CE89E10E94AE03019709F096
:1023400085CE80CE8BE10E94AE03892B09F484CE2A
:10235000F11085CE60E083E10E94D8038ACE8334F9
:1023600009F43EC0843409F097CE0E94F90863E571
:1023700078E085EB99E09FD868EE73E080E090E02C
:102380000E946C040E94F90867E076E085EB99E012
:1023900092D861E080E00E94EB0810929F087CCE0A
:1023A0000E94F90864E278E085EB99E084D861E066
:1023B00080E00E94EB086DE278E085EB99E07BD845
:1023C00093D86ACE0E94F90864E278E085EB99E040
:1023D00072D861E080E00E94EB0863E378E0EDCF23
:1023E0000E94F90869E378E085EB99E064D861E040
:1023F00080E00E94EB08CE010196B2DABE016F5F69
:102400007F4F8DEC99E07BD8CE010196C3D868EE62
:1024100073E080E090E00E946C040E94F90865E49B
:1024200078E085EB99E047D88DEC99E00E9464094B
:10243000C7CFCE01019694DA6DEC79E0CE0101961A
:102440000E942509F82ECE010196A4D8FF2081F123
:102450000E94F90861E678E085EB99E02CD8CE017E
:10246000019687D9E0909D08F0909E080E9DC001CE
:102470000F9D900D1124BE016F5F7F4F8152964FCB
:102480003ED8CE01019686D88FEFE81AF80AF0926E
:102490009E08E0929D0880919B0890919C0801966F
:1024A00090939C0880939B081FD810939F08F4CDAD
:1024B0000E94F90861E778E085EB99E00E945B0AE9
:1024C00068EE73E080E090E00E946C040E94F908DE
:1024D00067E076E085EB99E00E945B0A61E080E0CE
:1024E0000E94EB08D9CDCF93DF938DEC99E052D8C1
:1024F00083ED99E04FD889ED99E04CD8C7E5DAE053
:102500002697CE0147D889E0CF3DD807C9F7DF919C
:10251000CF9108951F93FC0199278827BC01E89467
:1025200011911032E9F3193010F01E30C8F31B324C
:1025300049F01D3241F4689405C01CD0610F711D33
:10254000811D911D119110531A30B8F33EF49095EE
:102550008095709561957F4F8F4F9F4F1F91089584
:10256000BB274A3031F4992322F4BDE2909581953E
:102570009F4F16C0592F482F372F262F660F771FD2
:10258000881F991F660F771F881F991F620F731F7F
:10259000841F951F660F771F881F991F0895BB27FB
:1025A000FB015527AA27880F991FAA1FA41710F00F
:1025B000A41B83955051B9F7A05DAA3308F0A95D1B
:1025C000A193009779F7B111B1931192CB0100C09B
:1025D000DC01FC01672F71917723E1F7329704C08A
:1025E0007C916D9370836291AE17BF07C8F3089515
:1025F000052E97FB16F400940FD057FD05D024D07C
:1026000007FC02D046F408C05095409530952195BE
:102610003F4F4F4F5F4F089590958095709561950E
:102620007F4F8F4F9F4F089531D0A59F900DB49F3E
:10263000900DA49F800D911D11240895B7FFF4CF34
:10264000F3DF821B930B0895A1E21A2EAA1BBB1B7A
:10265000FD010DC0AA1FBB1FEE1FFF1FA217B3076E
:10266000E407F50720F0A21BB30BE40BF50B661F84
:10267000771F881F991F1A9469F760957095809548
:1026800090959B01AC01BD01CF010895A29FB001BF
:10269000B39FC001A39F700D811D1124911DB29F96
:1026A000700D811D1124911D089597FB072E16F4BE
:1026B000009406D077FD08D019D007FC05D03EF471
:1026C000909581959F4F0895709561957F4F0895DE
:1026D000EE0FFF1F881F8BBF0790F691E02D199416
:1026E000D5DFB7FF0895821B930B0895AA1BBB1B70
:1026F00051E107C0AA1FBB1FA617B70710F0A61B02
:10270000B70B881F991F5A95A9F780959095BC0122
:10271000CD0108950F931F93CF93DF9382309105DE
:1027200010F482E090E0E091590AF0915A0A30E00A
:1027300020E0B0E0A0E0309799F42115310509F4CC
:102740004AC0281B390B24303105D8F58A819B817A
:102750006115710589F1FB0193838283FE0111C02C
:10276000408151810281138148175907E0F04817D1
:10277000590799F4109761F012960C9312971396DB
:102780001C933296CF01DF91CF911F910F91089545
:102790000093590A10935A0AF4CF2115310551F0CC
:1027A0004217530738F0A901DB019A01BD01DF018F
:1027B000F801C1CFEF01F9CF90935A0A8093590ADB
:1027C000CDCFFE01E20FF31F819391932250310987
:1027D00039832883D7CF2091570A3091580A232B69
:1027E00041F420911B0230911C023093580A20932F
:1027F000570A2091190230911A022115310541F42E
:102800002DB73EB740911D0250911E02241B350B7F
:10281000E091570AF091580AE217F307A0F42E1B33
:102820003F0B2817390778F0AC014E5F5F4F241734
:10283000350748F04E0F5F1F5093580A4093570AD0
:10284000819391939FCFF0E0E0E09CCFCF93DF9313
:102850000097E9F0FC01329713821282A091590A85
:10286000B0915A0AED0130E020E01097A1F42081E8
:102870003181820F931F2091570A3091580A2817EF
:10288000390709F061C0F093580AE093570ADF91C5
:10289000CF910895EA01CE17DF07E8F54A815B8101
:1028A0009E0141155105B1F7E901FB83EA83499186
:1028B0005991C40FD51FEC17FD0761F480819181F8
:1028C0000296840F951FE901998388838281938101
:1028D0009B838A83F0E0E0E012968D919C911397A0
:1028E0000097B9F52D913C911197CD010296820F79
:1028F000931F2091570A3091580A2817390739F643
:10290000309751F510925A0A1092590AB093580A0A
:10291000A093570ABCCFD383C28340815181840FD7
:10292000951FC817D90761F44E5F5F4F8881998161
:10293000480F591F518340838A819B8193838283EF
:102940002115310509F0B0CFF0935A0AE093590AE6
:102950009ECFFD01DC01C0CF13821282D7CF4F92F0
:102960005F926F927F928F929F92AF92BF92CF921F
:10297000DF92EF92FF920F931F93CF93DF938C011F
:10298000009791F4CB01DF91CF911F910F91FF90B0
:10299000EF90DF90CF90BF90AF909F908F907F90FF
:1029A0006F905F904F90B6CEFC01E60FF71F9C0131
:1029B00022503109E217F30708F4AAC0D901CD91DA
:1029C000DC911197C617D70718F1C530D10570F003
:1029D000CE0104978617970748F0C61BD70B22979E
:1029E000C193D1936D937C93CF0130DFC801DF9108
:1029F000CF911F910F91FF90EF90DF90CF90BF90FC
:102A0000AF909F908F907F906F905F904F900895C0
:102A10005B01AC1ABD0A4C018C0E9D1EA091590A97
:102A2000B0915A0A512C412CF12CE12C109731F520
:102A30008091570A9091580A8815990509F05CC051
:102A40004616570608F058C08091190290911A0254
:102A5000009741F48DB79EB740911D0250911E0220
:102A6000841B950BE817F90708F052C0F093580A39
:102A7000E093570AF90171836083B8CF8D919C91DF
:102A8000119712966C90129713967C901397A81535
:102A9000B90559F56C0142E0C40ED11CCA14DB041F
:102AA00020F1AC014A195B09DA011296159780F002
:102AB0006282738251834083D9016D937C93E114C8
:102AC000F10471F0D7011396FC93EE9312978ECF19
:102AD00022968C0F9D1FF90191838083F301EFCF24
:102AE000F0935A0AE093590A81CF4816590608F420
:102AF0002C017D01D3019ACFCB010CDE7C01009724
:102B000039F0AE01B80107D0C801A0DE87016ECF51
:102B100010E000E06BCFFB01DC0102C001900D92E0
:102B200041505040D8F70895FB01DC018D91019090
:102B300080190110D9F3990B0895FB01DC01019074
:102B40000D920020E1F7089511E0C3E0D1E000E02C
:102B500005C0802FFE01BCDD2196011DC430D107C8
:0A2B600080E00807B1F7F894FFCFFA
:102B6A0001050403020908070631323341343536B8
:102B7A0042373839432D304F4400005B0A80001F2A
:102B8A001C1F1E1F1E1F1F1E1F1E1F00000000AC41
:102B9A000217024402F8027502530267020000009B
:102BAA000044040504D6030000000007091702A028
:102BBA000716020D0A002D2D2D2D3E4B4F4D555453
:102BCA004C415200656C656B7472696B61633A20A3
:102BDA00457664656B6920656C656B7472696B20F8
:102BEA0073697374656D696E6920616B74696620B7
:102BFA00656465722E00656C656B7472696B6B61D6
:102C0A007061743A20457664656B6920656C656B02
:102C1A007472696B2073697374656D696E6920617A
:102C2A006B74696620656465722E00737561633A18
:102C3A0020457664656B69207375207369737465C2
:102C4A006D696E6920616B74696620656465722EB0
:102C5A000073756B617061743A20457664656B69BF
:102C6A002073752073697374656D696E692070616C
:102C7A0073696620656465722E00646F67616C67AC
:102C8A00617A61633A20457664656B6920646F678F
:102C9A00616C67617A2073697374656D696E692006
:102CAA00616B74696620656465722E00646F676182
:102CBA006C67617A6B617061743A20457664656B02
:102CCA006920646F67616C67617A207369737465E0
:102CDA006D696E6920706173696620656465722E1C
:102CEA00006F6E6B6C696D6161633A204F6E206F85
:102CFA00646164616B69206B6C696D6179692061DB
:102D0A006B74696620656465722E006F6E6B6C6900
:102D1A006D616B617061743A2041726B61206F64FE
:102D2A006164616B69206B6C696D6179692070619E
:102D3A0073696620656465722E0061726B616B6CE3
:102D4A00696D6161633A2041726B61206F646164ED
:102D5A00616B69206B6C696D61796920616B74695B
:102D6A006620656465722E0061726B616B6C696DB9
:102D7A00616B617061743A2041726B61206F6461AA
:102D8A0064616B69206B6C696D617969207061732C
:102D9A00696620656465722E00736966726564658A
:102DAA006769733A20536966726520646567697357
:102DBA007469726D656B206963696E2079656E69E5
:102DCA0020736966726520697374656E69722E0074
:102DDA007461726968617961726C613A20536966DB
:102DEA0072652064656769737469726D656B2069C1
:102DFA0063696E2079656E692073696672652069F8
:102E0A007374656E69722E006576736963616B6CA3
:102E1A00696B3A20457664656B69206F64616C6101
:102E2A0072696E20736963616B6C696B2062696C8D
:102E3A00676973696E692076657269722E006775B3
:102E4A0076656E6C696B616B7469663A20457620AB
:102E5A00677576656E6C6967696E6920616B7469FE
:102E6A006620656465722E00677576656E6C696B9F
:102E7A0070617369663A20457620677576656E6C6F
:102E8A006967696E69207061736966206564657235
:102E9A002E0073697374656D7A616D616E693A208B
:102EAA0053697374656D207A616D616E2062696C15
:102EBA00676973696E692076657269722E00736933
:102ECA007374656D63696B6973693A2053697374C6
:102EDA00656D64656E2063696B69736920676572E5
:102EEA0063656B6C657369722E006B6F6D757462C6
:102EFA00696C676973693A2053697374656D6520F3
:102F0A0074616E696D6C69206B6F6D75746C61723A
:102F1A002068616B6B696E64612062696C67692005
:102F2A0076657269722E004F4E206F646120736954
:102F3A0063616B6C696B3A200020430041524B413C
:102F4A00206F646120736963616B6C696B3A20005E
:102F5A00484F5347454C44494E495A002D0030309A
:102F6A0030303030303000534946524520474952BC
:102F7A004953493A0053697374656D6520676972EC
:102F8A0069732073616174693A20005369667265D6
:102F9A00206769726973693A00656C656B74726956
:102FAA006B616300656C656B7472696B6B617061F0
:102FBA007400737561630073756B6170617400648A
:102FCA006F67616C67617A616300646F67616C67E0
:102FDA00617A6B61706174006F6E6B6C696D6161AF
:102FEA0063006F6E6B6C696D616B61706174006117
:102FFA00726B616B6C696D6161630061726B616BAD
:10300A006C696D616B617061740065767369636187
:10301A006B6C696B006B6F6D757462696C67697351
:10302A006900677576656E6C696B616B74696600B9
:10303A00677576656E6C696B706173696600736932
:10304A007374656D7A616D616E69006B617969741B
:10305A006C617200736966726564656769730059A9
:10306A00656E692053696672653A005369667265CE
:10307A0020446F6772756C613A0053696672652005
:10308A0044656769737469202E2100536966726505
:10309A0020446F6772756C616E616D616469202E80
:1030AA0021007461726968617961726C61005949C1
:1030BA004C3A0041593A0047554E3A00534141545F
:1030CA003A0044414B494B413A0053414E49594514
:1030DA003A00206B6F6D7574752069736C656E6448
:1030EA00692E00206B6F6D7574752074616E696D41
:1030FA006C616E616D6164692E0053697374656DEC
:10310A006520676972697320796170696C646920E6
:10311A002E2100475556454E4C494B2049484C41B3
:10312A004C49202C2059414E47494E20414C474991
:10313A004C414E4449202E2100475556454E4C4994
:10314A004B2049484C414C49202C20484152454B80
:10315A00455420414C47494C414E4449202E2100B8
:10316A00475556454E4C494B2049484C414C4920FD
:10317A002C2050454E43455245204143494C444931
:10318A00202E2100475556454E4C494B00414B5481
:10319A0049460050415349460059454E4920534932
:1031AA004652453A005349465245204445474953F9
:1031BA0054490053495354454D2043494B495349B7
:1031CA000053495354454D4520474952494C4449B7
:1031DA000059414E4C49532053494652452021003B
:00000001FF
